:100000000C9441000C9453000C9453000C94530036
:100010000C9453000C9453000C9453000C94530014
:100020000C9453000C9453000C9498020C946502A9
:100030000C9453000C9453000C9453000C945300F4
:100040000C9453000C9453000C9453000C945300E4
:100050000C945300084AD73B3BCE016E84BCBFFDD5
:10006000C12F3D6C74319ABD56833DDA3D00C77F88
:1000700011BED9E4BB4C3E916BAAAABE0000008021
:100080003F0011241FBECFE5D8E0DEBFCDBF10E09A
:10009000A0E6B0E001C01D92AC37B107E1F70E94C5
:1000A00049110C9438150C940000DF93CF93CDB711
:1000B000DEB77894CF91DF910895DF93CF93CDB7DA
:1000C000DEB7F894CF91DF910895DF93CF93CDB74A
:1000D000DEB7AAE2B0E0EAE2F0E0808188618C93CA
:1000E000A0E4B0E0E0E4F0E0808186688C93E9E28F
:1000F000F0E089E18083E0E4F0E01082CF91DF91CD
:100100000895DF93CF93CDB7DEB7EBE2F0E08081C7
:100110008823DCF7ECE2F0E08081CF91DF91089555
:10012000DF93CF930F92CDB7DEB78983EBE2F0E098
:100130008081882F90E0807290700097B9F3ECE294
:10014000F0E0898180830F90CF91DF910895DF9354
:10015000CF9300D0CDB7DEB79A8389830BC0E981F6
:10016000FA81208189819A8101969A838983822FDD
:100170000E949000E981FA818081882381F70F90A5
:100180000F90CF91DF910895DF93CF93CDB7DEB776
:1001900027970FB6F894DEBF0FBECDBF9D838C832B
:1001A0007F836E831B821A8217C00E94810089831D
:1001B00089818D30D9F089818A30C1F02C813D81CF
:1001C0008A819B81F901E80FF91F898180838A81E7
:1001D0009B8101969B838A838E819F819C01215004
:1001E00030408A819B8182179307F8F28C819D8130
:1001F0002A813B81FC01E20FF31F108227960FB684
:10020000F894DEBF0FBECDBFCF91DF910895DF938D
:10021000CF93CDB7DEB729970FB6F894DEBF0FBEE8
:10022000CDBF99878887198288859985009711F5B0
:1002300080E30E94900034C08981E82FF0E0888537
:1002400099852AE030E0B9010E941115282F205D20
:10025000CE010296E80FF91F208389818F5F898381
:10026000888599852AE030E0B9010E941115CB01FB
:1002700099878887888599850097F1F60EC08981CE
:10028000815089838981282F30E0CE010296FC01BC
:10029000E20FF31F80810E9490008981882379F703
:1002A00029960FB6F894DEBF0FBECDBFCF91DF9178
:1002B0000895DF93CF9300D000D0CDB7DEB7898308
:1002C0006A83A3E5B0E0E3E5F0E08081887F8C936A
:1002D000A3E5B0E0E3E5F0E090818981892B8C9380
:1002E0008A81282F30E03C832B838B819C8100976F
:1002F00031F02B813C812130310549F01DC0A9E549
:10030000B0E0E9E5F0E0808181608C9315C0A9E55B
:10031000B0E0E9E5F0E080818F7B8C93A9E5B0E067
:10032000E9E5F0E0808188608C93A9E5B0E0E9E53B
:10033000F0E0808182608C930F900F900F900F906F
:10034000CF91DF910895DF93CF9300D000D0CDB748
:10035000DEB789836A83A3E5B0E0E3E5F0E080815E
:10036000887F8C93A3E5B0E0E3E5F0E090818A819B
:10037000892B8C938981282F30E03C832B838B81C0
:100380009C818230910531F02B813C8123303105F5
:1003900081F01DC0A3E5B0E0E3E5F0E0808180647A
:1003A0008C93A3E5B0E0E3E5F0E0808188608C9376
:1003B0000EC0A3E5B0E0E3E5F0E0808180648C93BB
:1003C000A3E5B0E0E3E5F0E08081877F8C93A3E5CF
:1003D000B0E0E3E5F0E080818F7E8C93A3E5B0E0B0
:1003E000E3E5F0E0808180628C93A9E5B0E0E9E587
:1003F000F0E0808182608C930F900F900F900F90AF
:10040000CF91DF910895DF93CF930F92CDB7DEB7F1
:100410008983E2E5F0E0898180830F90CF91DF91BD
:100420000895DF93CF9300D0CDB7DEB79A83898349
:1004300089819A8190937B0080937A000F900F902E
:10044000CF91DF910895DF93CF930F92CDB7DEB7B1
:100450008983ECE5F0E0898180830F90CF91DF9173
:100460000895DF93CF930F92CDB7DEB78983A3E5CD
:10047000B0E0E3E5F0E080818F7C8C93A3E5B0E011
:10048000E3E5F0E08081282F8981882F90E0829534
:100490009295907F9827807F9827822B8C930F903E
:1004A000CF91DF910895DF93CF9300D0CDB7DEB722
:1004B0009A83898389819A819093790080937800C7
:1004C0000F900F90CF91DF9108951F920F920FB66A
:1004D0000F9211242F933F934F935F936F937F93CA
:1004E0008F939F93AF93BF93EF93FF93DF93CF933C
:1004F000CDB7DEB780917A0090917B00009729F00C
:10050000E0917A00F0917B000995CF91DF91FF9106
:10051000EF91BF91AF919F918F917F916F915F917B
:100520004F913F912F910F900FBE0F901F901895F4
:100530001F920F920FB60F9211242F933F934F9358
:100540005F936F937F938F939F93AF93BF93EF933B
:10055000FF93DF93CF93CDB7DEB780917800909172
:100560007900009729F0E0917800F09179000995E1
:10057000CF91DF91FF91EF91BF91AF919F918F91BB
:100580007F916F915F914F913F912F910F900FBE8F
:100590000F901F901895DF93CF93CDB7DEB7E1E2B0
:1005A000F0E01082A6E5B0E0E6E5F0E080818E7F25
:1005B0008C93A6E5B0E0E6E5F0E080818D7F8C933A
:1005C000E0E2F0E080E28083CF91DF910895DF9355
:1005D000CF9300D00F92CDB7DEB78A83E6E5F0E087
:1005E00084EA8083E6E5F0E080818823DCF7E1E2BD
:1005F000F0E08081887F89838981883011F01B82B7
:1006000020C0E3E2F0E08A818083E6E5F0E084E860
:100610008083E6E5F0E080818823DCF7E1E2F0E02A
:100620008081887F89838981883119F481E08B8377
:1006300008C08981803219F482E08B8302C083E094
:100640008B838B810F900F900F90CF91DF91089546
:10065000DF93CF9300D00F92CDB7DEB78A83E6E564
:10066000F0E084EA8083E6E5F0E080818823DCF72F
:10067000E1E2F0E08081887F89838981803111F017
:100680001B8220C0E3E2F0E08A818083E6E5F0E0AF
:1006900084E88083E6E5F0E080818823DCF7E1E20E
:1006A000F0E08081887F89838981803419F481E03A
:1006B0008B8308C08981883419F482E08B8302C05F
:1006C00083E08B838B810F900F900F90CF91DF9100
:1006D0000895DF93CF9300D00F92CDB7DEB78A8312
:1006E000E3E2F0E08A818083E6E5F0E084E880835D
:1006F000E6E5F0E080818823DCF7E1E2F0E080814C
:10070000887F89838981883211F41B8208C089819E
:10071000803319F481E08B8302C082E08B838B816C
:100720000F900F900F90CF91DF910895DF93CF93AB
:10073000CDB7DEB7E6E5F0E084EC8083E6E5F0E0F7
:1007400080818823DCF7E3E2F0E08081CF91DF91C4
:100750000895DF93CF93CDB7DEB7E6E5F0E084E808
:100760008083E6E5F0E080818823DCF7E3E2F0E0D7
:100770008081CF91DF910895DF93CF93CDB7DEB71E
:10078000E6E5F0E084E98083E6E5F0E08081882F0B
:1007900090E0807190700097B9F7CF91DF91089544
:1007A000DF93CF930F92CDB7DEB78983E2E2F0E01B
:1007B00089818083E6E5F0E084EC80830F90CF911F
:1007C000DF910895DF93CF9300D0CDB7DEB7E6E594
:1007D000F0E080818823DCF7E1E2F0E08081887F2F
:1007E00089838981803619F08981883611F41A82CB
:1007F00011C08981883A19F08981803B19F481E020
:100800008A8308C08981803719F089818837F9F691
:1008100082E08A838A810F900F90CF91DF910895B3
:10082000DF93CF9300D00F92CDB7DEB78A83E3E298
:10083000F0E08A818083E6E5F0E084EC8083E6E501
:10084000F0E080818823DCF7E1E2F0E08081887FBE
:1008500089838981803A51F4A6E5B0E0E6E5F0E0CD
:10086000808180688C938FEF8B831AC08981883B4D
:1008700011F41B8215C08981803C51F4A6E5B0E0DB
:10088000E6E5F0E0808180688C938EEF8B8308C072
:100890008981883C19F48DEF8B8302C08CEF8B83A8
:1008A0008B810F900F900F90CF91DF910895DF9380
:1008B000CF9300D0CDB7DEB7E6E5F0E084EC8083DF
:1008C000E6E5F0E080818823DCF7E1E2F0E080817A
:1008D000887F89838981803819F08981803929F45A
:1008E000E3E2F0E080818A831AC08981883819F0B8
:1008F0008981883929F4E3E2F0E080818A830FC09E
:100900008981803A51F4A6E5B0E0E6E5F0E0808127
:1009100080688C938FEF8A8302C08EEF8A838A81EE
:100920000F900F90CF91DF910895DF93CF93CDB7C4
:10093000DEB727970FB6F894DEBF0FBECDBF898311
:100940006A834B838A81883008F0EAC08B818130CA
:1009500009F06FC08981282F30E03F832E838E817C
:100960009F818130910549F12E813F8122303105EF
:100970002CF48E819F81009761F0D2C02E813F813F
:100980002230310571F18E819F8183309105E9F12B
:10099000C7C0AAE3B0E0EAE3F0E08081482F8A8193
:1009A000282F30E081E090E0022E02C0880F991FCE
:1009B0000A94E2F7842B8C93B3C0A7E3B0E0E7E39B
:1009C000F0E08081482F8A81282F30E081E090E09C
:1009D000022E02C0880F991F0A94E2F7842B8C9391
:1009E0009FC0A4E3B0E0E4E3F0E08081482F8A8177
:1009F000282F30E081E090E0022E02C0880F991F7E
:100A00000A94E2F7842B8C938BC0A1E3B0E0E1E37E
:100A1000F0E08081482F8A81282F30E081E090E04B
:100A2000022E02C0880F991F0A94E2F7842B8C9340
:100A300077C08B81882309F073C08981282F30E02B
:100A40003D832C838C819D818130910559F12C81CE
:100A50003D81223031052CF48C819D81009769F015
:100A60005FC02C813D812230310589F18C819D81CF
:100A70008330910509F440C053C0AAE3B0E0EAE333
:100A8000F0E08081482F8A81282F30E081E090E0DB
:100A9000022E02C0880F991F0A94E2F780958423E2
:100AA0008C933EC0A7E3B0E0E7E3F0E08081482FFD
:100AB0008A81282F30E081E090E0022E02C0880F6A
:100AC000991F0A94E2F7809584238C9329C0A4E3AC
:100AD000B0E0E4E3F0E08081482F8A81282F30E005
:100AE00081E090E0022E02C0880F991F0A94E2F77D
:100AF000809584238C9314C0A1E3B0E0E1E3F0E09F
:100B00008081482F8A81282F30E081E090E0022EFA
:100B100002C0880F991F0A94E2F7809584238C9372
:100B200027960FB6F894DEBF0FBECDBFCF91DF91F1
:100B30000895DF93CF93CDB7DEB727970FB6F8941C
:100B4000DEBF0FBECDBF89836A834B838B8181302B
:100B500009F06FC08981282F30E03F832E838E817A
:100B60009F818130910549F12E813F8122303105ED
:100B70002CF48E819F81009761F0CEC02E813F8141
:100B80002230310571F18E819F8183309105E9F129
:100B9000C3C0ABE3B0E0EBE3F0E08081482F8A8193
:100BA000282F30E081E090E0022E02C0880F991FCC
:100BB0000A94E2F7842B8C93AFC0A8E3B0E0E8E39B
:100BC000F0E08081482F8A81282F30E081E090E09A
:100BD000022E02C0880F991F0A94E2F7842B8C938F
:100BE0009BC0A5E3B0E0E5E3F0E08081482F8A8177
:100BF000282F30E081E090E0022E02C0880F991F7C
:100C00000A94E2F7842B8C9387C0A2E3B0E0E2E37E
:100C1000F0E08081482F8A81282F30E081E090E049
:100C2000022E02C0880F991F0A94E2F7842B8C933E
:100C300073C08981282F30E03D832C838C819D8176
:100C40008130910559F12C813D81223031052CF400
:100C50008C819D81009769F05FC02C813D8122309D
:100C6000310589F18C819D818330910509F440C063
:100C700053C0ABE3B0E0EBE3F0E08081482F8A8122
:100C8000282F30E081E090E0022E02C0880F991FEB
:100C90000A94E2F7809584238C933EC0A8E3B0E0E9
:100CA000E8E3F0E08081482F8A81282F30E081E05E
:100CB00090E0022E02C0880F991F0A94E2F78095F7
:100CC00084238C9329C0A5E3B0E0E5E3F0E08081C4
:100CD000482F8A81282F30E081E090E0022E02C068
:100CE000880F991F0A94E2F7809584238C9314C08F
:100CF000A2E3B0E0E2E3F0E08081482F8A81282F70
:100D000030E081E090E0022E02C0880F991F0A9423
:100D1000E2F7809584238C9327960FB6F894DEBF74
:100D20000FBECDBFCF91DF910895DF93CF9300D059
:100D300000D00F92CDB7DEB78A836B838A81282FCC
:100D400030E03D832C834C815D814130510541F180
:100D50008C819D818230910534F42C813D81211557
:100D6000310561F052C04C815D814230510551F135
:100D70008C819D8183309105B9F147C0E9E3F0E0B2
:100D80008081282F30E08B81882F90E0A90102C05C
:100D9000559547958A95E2F7CA018170898335C0D8
:100DA000E6E3F0E08081282F30E08B81882F90E00F
:100DB000A90102C0559547958A95E2F7CA0181704D
:100DC000898323C0E3E3F0E08081282F30E08B812A
:100DD000882F90E0A90102C0559547958A95E2F7C2
:100DE000CA018170898311C0E0E3F0E08081282F7F
:100DF00030E08B81882F90E0A90102C0559547957E
:100E00008A95E2F7CA018170898389810F900F90DA
:100E10000F900F900F90CF91DF910895DF93CF93B4
:100E200000D000D000D0CDB7DEB789836A83898136
:100E3000883008F06BC08A818F3F99F58981282F0F
:100E400030E03E832D838D819E8181309105D1F0EC
:100E50002D813E81223031052CF48D819E810097B9
:100E600061F054C02D813E812230310581F08D81A9
:100E70009E818330910581F049C0EAE3F0E08A81E8
:100E8000808344C0E7E3F0E08A8180833FC0E4E3ED
:100E9000F0E08A8180833AC0E1E3F0E08A818083D8
:100EA00035C08A81882391F58981282F30E03C83E1
:100EB0002B838B819C8181309105D1F02B813C81EA
:100EC000223031052CF48B819C81009761F01EC08B
:100ED0002B813C812230310581F08B819C818330D4
:100EE000910581F013C0EAE3F0E08A8180830EC0AF
:100EF000E7E3F0E08A81808309C0E4E3F0E08A81DF
:100F0000808304C0E1E3F0E08A81808326960FB6F7
:100F1000F894DEBF0FBECDBFCF91DF910895DF9370
:100F2000CF9300D000D0CDB7DEB789836A838981A3
:100F3000282F30E03C832B838B819C81813091056D
:100F400049F12B813C81223031052CF48B819C812D
:100F5000009761F05AC02B813C812230310571F13C
:100F60008B819C8183309105E9F14FC0ABE3B0E008
:100F7000EBE3F0E08081482F8A81282F30E081E088
:100F800090E0022E02C0880F991F0A94E2F7842B8A
:100F90008C933BC0A8E3B0E0E8E3F0E08081482F09
:100FA0008A81282F30E081E090E0022E02C0880F75
:100FB000991F0A94E2F7842B8C9327C0A5E3B0E035
:100FC000E5E3F0E08081482F8A81282F30E081E03E
:100FD00090E0022E02C0880F991F0A94E2F7842B3A
:100FE0008C9313C0A2E3B0E0E2E3F0E08081482FED
:100FF0008A81282F30E081E090E0022E02C0880F25
:10100000991F0A94E2F7842B8C930F900F900F9006
:101010000F90CF91DF910895DF93CF93CDB7DEB7D7
:1010200028970FB6F894DEBF0FBECDBF89836A83C1
:101030008A818F3F99F58981282F30E038872F8367
:101040008F81988581309105D1F02F8138852230AC
:1010500031052CF48F819885009761F087C02F812E
:1010600038852230310581F08F8198858330910554
:1010700081F07CC0EBE3F0E08A81808377C0E8E315
:10108000F0E08A81808372C0E5E3F0E08A818083AA
:101090006DC0E2E3F0E08A81808368C08A818823A2
:1010A00099F58981282F30E03E832D838D819E81A3
:1010B00081309105D1F02D813E81223031052CF413
:1010C0008D819E81009761F051C02D813E8122303B
:1010D000310581F08D819E818330910581F046C07C
:1010E000EBE3F0E08A81808341C0E8E3F0E08A81AD
:1010F00080833CC0E5E3F0E08A81808337C0E2E38F
:10110000F0E08A81808332C08981282F30E03C83DF
:101110002B838B819C8181309105D1F02B813C8187
:10112000223031052CF48B819C81009761F01EC028
:101130002B813C812230310581F08B819C81833071
:10114000910581F013C0EBE3F0E08A8180830EC04B
:10115000E8E3F0E08A81808309C0E5E3F0E08A817A
:10116000808304C0E2E3F0E08A81808328960FB692
:10117000F894DEBF0FBECDBFCF91DF910895DF930E
:10118000CF9300D000D00F92CDB7DEB78A836B83A8
:101190008A81282F30E03D832C838C819D81813092
:1011A0009105D1F02C813D81223031052CF48C81C8
:1011B0009D81009761F01EC02C813D812230310558
:1011C00081F08C819D818330910581F013C0E9E32A
:1011D000F0E0808189830EC0E6E3F0E080818983BE
:1011E00009C0E3E3F0E08081898304C0E0E3F0E03C
:1011F0008081898389810F900F900F900F900F90BD
:10120000CF91DF910895DF93CF93CDB7DEB76D9780
:101210000FB6F894DEBF0FBECDBF8D8F80E090E09B
:10122000A8E4B3E4898F9A8FAB8FBC8F698D7A8DD8
:101230008B8D9C8D20E030E04AE755E40E945414E9
:10124000DC01CB018D8B9E8BAF8BB88F6D897E8936
:101250008F89988D20E030E040E85FE30E94DA1249
:1012600088232CF481E090E09C8B8B8B3FC06D89B0
:101270007E898F89988D20E03FEF4FE757E40E94E9
:10128000491418164CF5698D7A8D8B8D9C8D20E054
:1012900030E040E251E40E945414DC01CB01BC0177
:1012A000CD010E944613DC01CB019C8B8B8B0FC0C0
:1012B00080E991E09A8B898B89899A890197F1F766
:1012C0009A8B898B8B899C8901979C8B8B8B8B89C3
:1012D0009C89009769F714C06D897E898F89988DE4
:1012E0000E944613DC01CB019C8B8B8B8B899C89E4
:1012F000988B8F878F8598890197F1F7988B8F87C7
:101300008D8D982F917083E066E0492F0E9499059A
:101310008D8D8695982F917082E067E0492F0E940D
:1013200099058D8D86958695982F917082E062E063
:10133000492F0E9499058D8D869586958695982FC3
:10134000917081E063E0492F0E94990580E090E070
:10135000A0EAB1E48B879C87AD87BE876B857C85CF
:101360008D859E8520E030E04AE755E40E945414C4
:10137000DC01CB018F839887A987BA876F81788535
:1013800089859A8520E030E040E85FE30E94DA1228
:1013900088232CF481E090E09E838D833FC06F8191
:1013A000788589859A8520E03FEF4FE757E40E94D2
:1013B000491418164CF56B857C858D859E8520E03B
:1013C00030E040E251E40E945414DC01CB01BC0146
:1013D000CD010E944613DC01CB019E838D830FC09B
:1013E00080E991E09C838B838B819C810197F1F74D
:1013F0009C838B838D819E8101979E838D838D81BC
:101400009E81009769F714C06F81788589859A85D8
:101410000E944613DC01CB019E838D838D819E81CA
:101420009A83898389819A810197F1F79A838983C5
:101430008D8D882F90E0019620E130E0B9010E9467
:1014400025158D8F6D960FB6F894DEBF0FBECDBFFC
:10145000CF91DF910895DF93CF93CDB7DEB70E9490
:10146000CB0280ED0E94E70289E10E94690387E0D8
:101470000E9469030E94BC0380ED0E94E7028BE694
:101480000E94690380E00E9469030E94BC0380ED12
:101490000E94E7028AE10E94690385E00E946903D5
:1014A0000E94BC0380ED0E94E7028CE10E94690368
:1014B00080E10E9469030E94BC0380ED0E94E70264
:1014C0008BE10E94690380E10E9469030E94BC03D2
:1014D00080ED0E94E70288E30E94690381E00E9498
:1014E00069030E94BC03CF91DF9108950F931F936E
:1014F000DF93CF93CDB7DEB7A8970FB6F894DEBFD2
:101500000FBECDBF98A78FA380ED0E94E7028BE3AB
:101510000E94690381ED0E9428030E949603882F90
:1015200090E0182F00270E949603882F90E0802BD0
:10153000912B9EA38DA30E949603882F90E0182FD5
:1015400000270E949603882F90E0802B912B9CA36C
:101550008BA30E949603882F90E0182F00270E94EB
:101560009603882F90E0802B912B9AA389A30E9449
:101570009603882F90E0182F00270E949603882F4B
:1015800090E0802B912B9A8F898F0E949603882F51
:1015900090E0182F00270E949603882F90E0802B60
:1015A000912B98A38F8F0E949603882F90E0182F7D
:1015B00000270E949603882F90E0802B912B9E8F0E
:1015C0008D8F0E949603882F90E0182F00270E948D
:1015D000A903882F90E0802B912B9C8F8B8F0E94EA
:1015E000BC038DA19EA1AA2797FDA095BA2FBC018F
:1015F000CD010E947413DC01CB01BC01CD0120E0C0
:1016000030E040E855E40E94DE12DC01CB018D8B16
:101610009E8BAF8BB88F8BA19CA1AA2797FDA0951D
:10162000BA2FBC01CD010E947413DC01CB01BC01B7
:10163000CD0120E030E040E855E40E94DE12DC01FC
:10164000CB01898B9A8BAB8BBC8B89A19AA1AA27E2
:1016500097FDA095BA2FBC01CD010E947413DC0147
:10166000CB01BC01CD0120E030E040E855E40E9410
:10167000DE12DC01CB018D879E87AF87B88B6D852D
:101680007E858F8598892DEC3CEC4CE45DE30E94CF
:101690001312DC01CB018D879E87AF87B88B8F8DAE
:1016A00098A1AA2797FDA095BA2FBC01CD010E9451
:1016B0007413DC01CB01BC01CD0123E333E343E030
:1016C00052E40E94DE12DC01CB0189879A87AB8746
:1016D000BC878D8D9E8DAA2797FDA095BA2FBC0142
:1016E000CD010E947413DC01CB01BC01CD0123E3C9
:1016F00033E343E052E40E94DE12DC01CB018D8330
:101700009E83AF83B8878B8D9C8DAA2797FDA0956C
:10171000BA2FBC01CD010E947413DC01CB01BC01C6
:10172000CD0123E333E343E052E40E94DE12DC0107
:10173000CB0189839A83AB83BC83EFA1F8A58D8904
:101740009E89AF89B88D80839183A283B383EFA1F3
:10175000F8A589899A89AB89BC8984839583A683F6
:10176000B783EFA1F8A58D859E85AF85B889808761
:101770009187A287B387EFA1F8A589859A85AB8564
:10178000BC8584879587A687B787EFA1F8A58D814B
:101790009E81AF81B885808B918BA28BB38BEFA19B
:1017A000F8A589819A81AB81BC81848B958BA68BAE
:1017B000B78BA8960FB6F894DEBF0FBECDBFCF9102
:1017C000DF911F910F910895AF92BF92CF92DF9258
:1017D000EF92FF920F931F93DF93CF93CDB7DEB7B6
:1017E00066970FB6F894DEBF0FBECDBF9E8B8D8B74
:1017F000ED89FE8980819181A281B381ED89FE8985
:10180000208D318D428D538DBC01CD010E9413126C
:10181000DC01CB01898B9A8BAB8BBC8BED89FE896C
:1018200084819581A681B781ED89FE89248D358DCE
:10183000468D578DBC01CD010E941312DC01CB01F6
:101840008D879E87AF87B88BED89FE8980859185CE
:10185000A285B385ED89FE8920A131A142A153A1C2
:10186000BC01CD010E941312DC01CB0189879A874C
:10187000AB87BC8769897A898B899C8929893A8950
:101880004B895C890E945414DC01CB017C018D01E1
:1018900069857A858B859C8529853A854B855C850C
:1018A0000E945414DC01CB019C01AD01C801B701B9
:1018B0000E941412DC01CB01BC01CD010E94BB14BB
:1018C0009B01AC018D859E85AF85B889BC01CD019A
:1018D0000E948712DC01CB01BC01CD0120E030E089
:1018E00044E353E40E945414DC01CB01BC01CD015C
:1018F0002AED3FE049E450E40E94DE12DC01CB0116
:101900008D839E83AF83B88789899A89AB89BC8987
:101910005C016D01D7FAD094D7F8D0946D857E859F
:101920008F8598892D853E854F8558890E9454144E
:10193000DC01CB017C018D0169857A858B859C85D5
:1019400029853A854B855C850E945414DC01CB01C6
:101950009C01AD01C801B7010E941412DC01CB014A
:10196000BC01CD010E94BB149B01AC01C601B501B5
:101970000E948712DC01CB01BC01CD0120E030E0E8
:1019800044E353E40E945414DC01CB01BC01CD01BB
:101990002AED3FE049E450E40E94DE12DC01CB0175
:1019A00089839A83AB83BC83ED89FE898D819E8177
:1019B000AF81B88580AB91ABA2ABB3ABED89FE89AB
:1019C00089819A81AB81BC8184AB95ABA6ABB7AB67
:1019D000ED89FE89E0ACF1AC02AD13ADED89FE8975
:1019E00084899589A689B789BC01CD012FE632E1AA
:1019F00043E05CE30E945414DC01CB019C01AD0187
:101A0000C801B7010E941412DC01CB01ED89FE89E7
:101A100080AF91AFA2AFB3AF66960FB6F894DEBFBA
:101A20000FBECDBFCF91DF911F910F91FF90EF902F
:101A3000DF90CF90BF90AF900895DF93CF930F9238
:101A4000CDB7DEB789838981982F917080E064E0FB
:101A5000492F0E94990589818695982F917080E081
:101A600065E0492F0E949905898186958695982F72
:101A7000917080E066E0492F0E94990589818695E2
:101A800086958695982F917080E067E0492F0E9497
:101A900099050F90CF91DF910895DF93CF93CDB744
:101AA000DEB72E970FB6F894DEBF0FBECDBF81E034
:101AB00062E041E00E94990580E090E0A0E2B1E49C
:101AC0008B879C87AD87BE876B857C858D859E8542
:101AD00020E030E04AE755E40E945414DC01CB01D9
:101AE0008F839887A987BA876F81788589859A853A
:101AF00020E030E040E85FE30E94DA1288232CF413
:101B000081E090E09E838D833FC06F8178858985D9
:101B10009A8520E03FEF4FE757E40E9449141816DA
:101B20004CF56B857C858D859E8520E030E040E21C
:101B300051E40E945414DC01CB01BC01CD010E9490
:101B40004613DC01CB019E838D830FC080E991E0B9
:101B50009C838B838B819C810197F1F79C838B8382
:101B60008D819E8101979E838D838D819E810097BB
:101B700069F714C06F81788589859A850E9446131C
:101B8000DC01CB019E838D838D819E819A83898325
:101B900089819A810197F1F79A83898381E062E0D4
:101BA00040E00E9499052E960FB6F894DEBF0FBE56
:101BB000CDBFCF91DF910895DF93CF930F92CDB733
:101BC000DEB7898381E060E040E00E94990581E012
:101BD00061E041E00E949905898182958F700E94A1
:101BE0001D0D0E944D0D89810E941D0D0E944D0DFD
:101BF0000F90CF91DF910895DF93CF930F92CDB7E0
:101C0000DEB7898381E060E040E00E94990581E0D1
:101C100061E040E00E949905898182958F700E9461
:101C20001D0D0E944D0D89810E941D0D0E944D0DBC
:101C30000F90CF91DF910895DF93CF93CDB7DEB7AB
:101C40002E970FB6F894DEBF0FBECDBF80E090E0B8
:101C5000A0E2B2E48B879C87AD87BE876B857C85CD
:101C60008D859E8520E030E04AE755E40E945414BB
:101C7000DC01CB018F839887A987BA876F8178852C
:101C800089859A8520E030E040E85FE30E94DA121F
:101C900088232CF481E090E09E838D833FC06F8188
:101CA000788589859A8520E03FEF4FE757E40E94C9
:101CB000491418164CF56B857C858D859E8520E032
:101CC00030E040E251E40E945414DC01CB01BC013D
:101CD000CD010E944613DC01CB019E838D830FC092
:101CE00080E991E09C838B838B819C810197F1F744
:101CF0009C838B838D819E8101979E838D838D81B3
:101D00009E81009769F714C06F81788589859A85CF
:101D10000E944613DC01CB019E838D838D819E81C1
:101D20009A83898389819A810197F1F79A838983BC
:101D300082E00E941D0D0E944D0D82E00E941D0D4B
:101D40000E944D0D88E00E941D0D0E944D0D8EE0F9
:101D50000E94FC0D81E00E94FC0D2E960FB6F894B7
:101D6000DEBF0FBECDBFCF91DF910895DF93CF933C
:101D700000D0CDB7DEB79A8389830BC0E981FA81A1
:101D8000208189819A8101969A838983822F0E947A
:101D9000DC0DE981FA818081882F90E0009771F74E
:101DA0000F900F90CF91DF910895DF93CF93CDB730
:101DB000DEB767970FB6F894DEBF0FBECDBF9F8B1F
:101DC0008E8B8E899F89009721F480E30E94DC0D21
:101DD00036C019821DC08981E82FF0E08E899F8965
:101DE0002AE030E0B9010E941115282FCE01029699
:101DF000E80FF91F208389818F5F89838E899F89EE
:101E00002AE030E0B9010E941115CB019F8B8E8B27
:101E10008E899F890097F9F60FC089818150898347
:101E20008981282F30E0CE010296FC01E20FF31FDA
:101E30008081805D0E94DC0D8981882371F767961F
:101E40000FB6F894DEBF0FBECDBFCF91DF910895DE
:101E5000DF93CF9300D00F92CDB7DEB78A836B8329
:101E60008B81882F90E0002496958795079496950E
:101E700087950794982F802D982F8A81890F8983C1
:101E800089818068898389810E94FC0D0F900F9061
:101E90000F90CF91DF910895DF93CF93CDB7DEB749
:101EA00027970FB6F894DEBF0FBECDBF9C838B8300
:101EB0006D834E832F838D81882F90E0880F991F2B
:101EC000880F991F880F991F8A838A8180648A836B
:101ED0008A810E94FC0D19820EC08981282F30E072
:101EE0008B819C81FC01E20FF31F80810E94DC0D3D
:101EF00089818F5F89838981883078F38E816F81B2
:101F00000E94280F8D810E94DC0D27960FB6F89451
:101F1000DEBF0FBECDBFCF91DF910895DF93CF938A
:101F2000CDB7DEB72A970FB6F894DEBF0FBECDBF90
:101F30006F83788789879A876F81788589859A8565
:101F400020E030E040E050E00E94DA12882364F4A0
:101F50008DE20E94DC0D8F819885A985BA85B058E5
:101F60008F839887A987BA876F81788589859A85B5
:101F70000E944613DC01CB019E838D838D819E815F
:101F80000E94D50E8EE20E94DC0D8D819E81CC01D7
:101F9000A0E0B0E0BC01CD010E9472139B01AC0136
:101FA0006F81788589859A850E941312DC01CB01A7
:101FB00089839A83AB83BC8369817A818B819C817D
:101FC00020E030E048EC52E40E945414DC01CB01E4
:101FD00089839A83AB83BC8369817A818B819C815D
:101FE00020E030E040E251E40E94DA1288231CF441
:101FF00080E30E94DC0D69817A818B819C810E9443
:102000004613DC01CB010E94D50E2A960FB6F89438
:10201000DEBF0FBECDBFCF91DF910895DF93CF9389
:10202000CDB7DEB781E00E94FC0DCF91DF9108951E
:10203000DF93CF93CDB7DEB7CF91DF910895DF93D4
:10204000CF9300D0CDB7DEB787E690E09A8389833F
:10205000E0E4F0E089819A81892F99278083E9E281
:10206000F0E089818083EAE2F0E088E18083E0E4C7
:10207000F0E086E880830F900F90CF91DF91089574
:10208000DF93CF930F92CDB7DEB78983EBE2F0E019
:102090008081882F90E0807290700097B9F3ECE215
:1020A000F0E0898180830F90CF91DF910895DF93D5
:1020B000CF93CDB7DEB7EBE2F0E080818823DCF789
:1020C000ECE2F0E08081CF91DF910895DF93CF9330
:1020D00000D0CDB7DEB79A8389830AC0E981FA813F
:1020E00080810E94401089819A8101969A83898318
:1020F000E981FA818081882389F70F900F90CF9131
:10210000DF910895DF93CF9300D000D0CDB7DEB735
:1021100069837A838B839C8369817A818B819C819B
:1021200020E030E040EF51E40E944914181644F4D6
:1021300080E090E0A0EFB1E489839A83AB83BC8315
:1021400069817A818B819C8120E030E040EF51EC05
:102150000E94DA12882344F480E090E0A0EFB1EC12
:1021600089839A83AB83BC8369817A818B819C81CB
:1021700020E030E040E050E00E94DA1288234CF486
:1021800089819A81AB81BC81B05889839A83AB8362
:10219000BC8369817A818B819C8120E030E040EFB3
:1021A00051E40E94DE12DC01CB01BC01CD0120E034
:1021B00030E04FE753E40E945414DC01CB01BC0132
:1021C000CD010E944613DC01CB010F900F900F90C0
:1021D0000F90CF91DF910895DF93CF9300D00F92AE
:1021E000CDB7DEB79A838983E981FA8184A995A95D
:1021F000A6A9B7A9BC01CD0120E030E040EA50E437
:102200000E94491418161CF486E48B833BC0E981B4
:10221000FA8184A995A9A6A9B7A9BC01CD0120E09E
:1022200030E040EA50EC0E94DA1288231CF482E489
:102230008B8328C0E981FA8180A991A9A2A9B3A9B9
:10224000BC01CD0120E030E040EA50E40E94491496
:1022500018161CF482E58B8315C0E981FA8180A9E8
:1022600091A9A2A9B3A9BC01CD0120E030E040EAC8
:1022700050EC0E94DA1288231CF48CE48B8302C099
:1022800083E58B838B810F900F900F90CF91DF911F
:102290000895DF93CF93CDB7DEB7CC54D0400FB6BF
:1022A000F894DEBF0FBECDBF0E9465000E942B0ACE
:1022B000CE0141960E94760ACE0141960E94E40B1F
:1022C000CE0141960E94EC10888B8889863419F0E3
:1022D0008889823469F4FE01EB5BFF4F8081918134
:1022E000A281B381BC01CD010E9482108F8714C0EE
:1022F00088898C3419F08889823569F4FE01EF5B96
:10230000FF4F80819181A281B381BC01CD010E94E8
:1023100082108F8701C01F868CE30E9490008889FD
:102320000E9490008CE20E9490008F85882F90E0A0
:102330000E9407018EE30E9490008AE00E949000B4
:1023400080E090E0A0EAB1E48B879C87AD87BE87F0
:102350006B857C858D859E8520E030E04AE755E4DD
:102360000E945414DC01CB018F839887A987BA8718
:102370006F81788589859A8520E030E040E85FE3C9
:102380000E94DA1288232CF481E090E09E838D83F2
:102390003FC06F81788589859A8520E03FEF4FE7C0
:1023A00057E40E94491418164CF56B857C858D8581
:1023B0009E8520E030E040E251E40E945414DC01AC
:1023C000CB01BC01CD010E944613DC01CB019E83F1
:1023D0008D830FC080E991E09C838B838B819C81EE
:1023E0000197F1F79C838B838D819E8101979E835A
:1023F0008D838D819E81009769F75ACF6F81788593
:1024000089859A850E944613DC01CB019E838D83CA
:102410008D819E819A83898389819A810197F1F7C1
:102420009A83898345CF5058BB27AA270ED0F7C17E
:10243000E8D130F0EDD120F031F49F3F11F41EF4DB
:10244000B8C10EF4E095E7FBAEC1E92FF9D180F3F6
:10245000BA17620773078407950718F071F49EF5A1
:1024600011C20EF4E0950B2EBA2FA02D0B01B9016D
:1024700090010C01CA01A0011124FF27591B99F0FA
:10248000593F50F4503E68F11A16F040A22F232F06
:10249000342F4427585FF3CF469537952795A79556
:1024A000F0405395C9F77EF41F16BA0B620B730BFD
:1024B000840BBAF09150A1F0FF0FBB1F661F771F6E
:1024C000881FC2F70EC0BA0F621F731F841F48F423
:1024D000879577956795B795F7959E3F08F0B3CFA9
:1024E0009395880F08F09927EE0F97958795089593
:1024F00088D158F080E891E009F49EEF89D128F066
:1025000040E851E059F45EEF09C053C1BBC1E92F67
:10251000E07896D168F3092E052AC1F3261737070C
:102520004807590738F00E2E07F8E02569F0E02536
:10253000E0640AC0EF6307F8009407FADB01B90111
:102540009D01DC01CA01AD01EF9347D068D10AD0EB
:102550005F91552331F02BED3FE049E450FD49EC0C
:1025600063CF0895DF93DD27B92FBF7740E85FE39E
:102570001616170648075B0710F4D92F8ED19F93C4
:102580008F937F936F9335D2E4E5F0E015D147D177
:102590002F913F914F915F9193D1DD2349F0905856
:1025A000A2EA2AED3FE049EC5FE3D0785D274DDFFA
:1025B000DF9135C1D4D008F481E008950CD02FC14B
:1025C00027D140F01ED130F021F45F3F19F0EBC06D
:1025D000511159C1EEC034D198F39923C9F3552351
:1025E000B1F3951B550BBB27AA2762177307840706
:1025F00038F09F5F5F4F220F331F441FAA1FA9F3BC
:1026000033D00E2E3AF0E0E830D091505040E695AD
:10261000001CCAF729D0FE2F27D0660F771F881F0E
:10262000BB1F261737074807AB07B0E809F0BB0BFD
:10263000802DBF01FF2793585F4F2AF09E3F510521
:1026400068F0B1C020C15F3FECF3983EDCF38695A3
:1026500077956795B795F7959F5FC9F7880F911D97
:102660009695879597F90895E1E0660F771F881F83
:10267000BB1F621773078407BA0720F0621B730B36
:10268000840BBA0BEE1F88F7E0950895E1D088F02F
:102690009F5790F0B92F9927B751A0F0D1F0660F4E
:1026A000771F881F991F1AF0BA95C9F712C0B13069
:1026B00081F0E8D0B1E00895E5C0672F782F882732
:1026C000B85F39F0B93FCCF3869577956795B395A8
:1026D000D9F73EF490958095709561957F4F8F4F17
:1026E0009F4F0895E89409C097FB3EF4909580951C
:1026F000709561957F4F8F4F9F4F9923A9F0F92FC8
:1027000096E9BB279395F695879577956795B79545
:10271000F111F8CFFAF4BB0F11F460FF1BC06F5F2B
:102720007F4F8F4F9F4F16C0882311F096E911C03D
:10273000772321F09EE8872F762F05C0662371F05E
:1027400096E8862F70E060E02AF09A95660F771F72
:10275000881FDAF7880F9695879597F90895990F4E
:102760000008550FAA0BE0E8FEEF16161706E8075B
:10277000F907C0F012161306E407F50798F0621B7C
:10278000730B840B950B39F40A2661F0232B242B51
:10279000252B21F408950A2609F4A140A6958FEF70
:1027A000811D811D089597F99F6780E870E060E0C2
:1027B00008959FEF80EC0895DF93CF931F930F93BD
:1027C000FF92EF92DF927B018C01689405C0DA2EB4
:1027D000EF0176D0FE01E894A591259135914591C0
:1027E0005591AEF3EF0131DEFE019701A801DA94B5
:1027F00079F7DF90EF90FF900F911F91CF91DF91CC
:10280000089500240A941616170618060906089556
:1028100000240A9412161306140605060895092EBC
:102820000394000C11F4882352F0BB0F40F4BF2B2B
:1028300011F460FF04C06F5F7F4F8F4F9F4F08956B
:1028400057FD9058440F551F59F05F3F71F0479561
:10285000880F97FB991F61F09F3F79F08795089546
:10286000121613061406551FF2CF4695F1DF08C065
:10287000161617061806991FF1CF86957105610582
:1028800008940895E894BB2766277727CB0197F92A
:10289000089565DF08F48FEF08959B01AC0160E0B7
:1028A00070E080E89FE38ACE0BD0B9CFAADF28F092
:1028B000AFDF18F0952309F076CF7BCF1124E3CF5B
:1028C000BFDFA0F3959FD1F3950F50E0551F629F96
:1028D000F001729FBB27F00DB11D639FAA27F00D79
:1028E000B11DAA1F649F6627B00DA11D661F829FA0
:1028F0002227B00DA11D621F739FB00DA11D621F85
:10290000839FA00D611D221F749F3327A00D611DA1
:10291000231F849F600D211D822F762F6A2F112483
:102920009F5750408AF0E1F088234AF0EE0FFF1FD6
:10293000BB1F661F771F881F91505040A9F79E3F0D
:10294000510570F030CF9FCF5F3FECF3983EDCF342
:10295000869577956795B795F795E7959F5FC1F74A
:10296000FE2B880F911D9695879597F9089511F480
:102970000EF41FCF41C06CDFD0F39923D9F3CEF30F
:102980009F57550B87FF46D00024A0E640EA9001F0
:1029900080585695979528F4805C660F771F881F9E
:1029A00020F026173707480730F4621B730B840B9F
:1029B000202931294A2BA6951794079420253125E3
:1029C0004A2758F7660F771F881F20F0261737070A
:1029D000480730F4620B730B840B200D311D411D31
:1029E000A09581F7B901842F9158880F9695879506
:1029F00008959B01AC0158CF9F3F31F0915020F4D6
:102A0000879577956795B795880F911D96958795CA
:102A100097F9089591505040660F771F881FD2F79D
:102A20000895AA1BBB1B51E107C0AA1FBB1FA61715
:102A3000B70710F0A61BB70B881F991F5A95A9F767
:102A400080959095BC01CD01089597FB092E07262E
:102A50000AD077FD04D0E5DF06D000201AF4709587
:102A600061957F4F0895F6F7909581959F4F089552
:042A7000F894FFCF08
:00000001FF
